:020000040800F2
:10000000504D0020750200081B160008B9130008A7
:10001000191600081D090008433000080000000000
:10002000000000000000000000000000E9170008C8
:100030005B12000800000000C1160008F518000857
:100040008F0200088F0200088F0200088F0200084C
:100050008F0200088F0200088F0200088F0200083C
:100060008F0200088F0200088F0200088F0200082C
:100070008F0200088F0200088F0200088F0200081C
:100080008F0200088F0200088F0200088F0200080C
:100090008F0200088F0200088F0200088F020008FC
:1000A0008F0200088F0200088F0200088F020008EC
:1000B0008F0200088F0200088F0200088F020008DC
:1000C0008F0200088F0200088F0200088F020008CC
:1000D0008F020008491900088F0200088F020008EB
:1000E0008F0200088F0200088F0200088F020008AC
:1000F0008F0200088F0200088F020008D90F000845
:100100008F0200088F0200088F0200088F0200088B
:100110008F0200088F0200088F0200088F0200087B
:100120008F0200088F0200088F0200088F0200086B
:100130008F0200088F0200088F0200088F0200085B
:100140008F0200088F0200088F0200088F0200084B
:100150008F0200088F0200088F0200088F0200083B
:100160008F0200088F020008A116000895160008EB
:10017000B9160008AD1600088F0200088F020008AB
:100180008F0200088F02000800F002F800F062F809
:100190000AA090E8000C82448344AAF10107DA45E2
:1001A00001D100F057F8AFF2090EBAE80F0013F0D2
:1001B000010F18BFFB1A43F001031847A8340000D1
:1001C000C83400000A444FF0000C10F8013B13F053
:1001D000070408BF10F8014B1D1108BF10F8015BA0
:1001E000641E05D010F8016B641E01F8016BF9D193
:1001F00013F0080F1EBF10F8014BAD1C0C1B09D1EA
:100200006D1E58BF01F801CBFAD505E014F8016B5B
:1002100001F8016B6D1EF9D59142D6D370470000ED
:100220000023002400250026103A28BF78C1FBD8FF
:10023000520728BF30C148BF0B607047642900F0E7
:10024000A380632900F09F81002070471FB51FBD68
:1002500010B510BD00F0D2F91146FFF7F7FF02F01C
:100260002FFF00F0F0F903B4FFF7F2FF03BC02F038
:10027000E9FE00000948804709480047FEE7FEE71D
:10028000FEE7FEE7FEE7FEE7FEE7FEE7FEE7FEE746
:1002900004480549034A054B70470000F918000857
:1002A0008901000850490020504D0020504900208D
:1002B000704700000FB4044910B503AA029800F07B
:1002C0006FF910BC5DF814FBB40000202DE9F0417B
:1002D0000E460446002020622046E168884730B37D
:1002E000252805D0D4E901219047206A401CF2E777
:1002F000E168204600278847050018D0A5F1410095
:10030000192802D820354FF4006732462946204686
:100310002760FFF793FF40B1012804D0F61D26F0B7
:1003200007060836D8E7361DD6E72846DAE7206AFA
:10033000BDE8F08170B50C460546012A05D0287845
:10034000800600D5EA69002302E0012305E05B1C7A
:10035000934202D2E05C0028F9D1A869E618C01ADD
:10036000A861286A184428622846AFF3008004E098
:10037000D5E9012114F8010B9047B442F8D328467F
:10038000AFF3008070BD00002DE9F0410646002467
:1003900010687529314616A511D0AFF300800028EA
:1003A00003DAC0F1000013A507E031688A0701D520
:1003B00011A502E0490704D510A5012401E0AFF31F
:1003C000008000210A2306F1240707E0B0FBF3F2C6
:1003D00003FB1200303078541046491C0028F5D138
:1003E00023462A463046BDE8F04100F066B80000DA
:1003F000000000002D0000002B0000002000000085
:1004000010B5203AC0F00B80B1E81850203AA0E8AF
:100410001850B1E81850A0E81850BFF4F5AF5FEAE3
:10042000027C24BFB1E81850A0E8185044BF18C996
:1004300018C0BDE810405FEA827C24BF51F8043B3D
:1004400040F8043B08BF7047D20728BF31F8023B91
:1004500048BF11F8012B28BF20F8023B48BF00F825
:10046000012B70474FF0000200B5134694469646A4
:10047000203922BFA0E80C50A0E80C50B1F12001B7
:10048000BFF4F7AF090728BFA0E80C5048BF0CC065
:100490005DF804EB890028BF40F8042B08BF7047C3
:1004A00048BF20F8022B11F0804F18BF00F8012B35
:1004B000704770477047704770472DE9F0470D4609
:1004C00099469246044600F124080168880604D53E
:1004D000E06921F01001216000E00120A84202DD66
:1004E000A0EB050700E00027A16907EB050202EB7E
:1004F0000900A1EB0000A0612078C00602D42046CC
:10050000AFF30080002608E0D4E901211AF80600C4
:100510009047206A401C761C20624E45F4DB207810
:10052000C0060AD52046AFF3008006E0D4E90121D9
:1005300030209047206A401C2062381EA7F1010736
:10054000F4DC07E0D4E9012118F805009047206A9F
:10055000401C2062281EA5F10105F3DC2046AFF304
:1005600000802078000602D50220BDE8F087012037
:10057000FBE710B5436913B1AFF3008001E0FFF76B
:10058000D9FE012010BD127800F124010A7000226A
:100590004A700122EDE711684FF0FF32E9E70000F1
:1005A000074B70B50D467B4400F011F80446284611
:1005B00000F020F810B14FF0FF3070BD204670BD44
:1005C000032B000001694A1C02610878704700B5DE
:1005D0008FB0CDE901310021059105497944CDE97C
:1005E000031011466846FFF771FE0FB000BD000012
:1005F000E5FFFFFF007B00F080007047754600F0CC
:1006000029F8AE4605006946534620F007008546A6
:1006100018B020B5FFF73CFEBDE820404FF00006C3
:100620004FF000074FF000084FF0000B21F00701DA
:10063000AC46ACE8C009ACE8C009ACE8C009ACE81D
:10064000C0098D4670470446AFF300802046FFF78F
:100650000AFE000000487047EC48002070B50546CF
:1006600048888EB00C46000A54D0012802D00228D7
:1006700050D149E06078012802D002284AD135E003
:1006800020782A4E000610D530688DF800003068BA
:10069000000A8DF801003068000C8DF80200306807
:1006A000000E8DF80300042229E000200090CA8883
:1006B0006946284601F045FA9DF80000DDF8011072
:1006C00040EA01204AF64441884200D131604BF6AD
:1006D0008031884200D131601549884200D13160B3
:1006E0001449884200D131600EB070BD20780006F8
:1006F000FAD5342210A16846FFF782FEE2886946E7
:10070000284601F03FFAEFE72078000602D560782E
:10071000012805D00EB02846BDE8704001F003BAAC
:100720000DA0012200680090E9E70000C000002051
:100730000077010000EE0200040044AC000044AC6D
:1007400000000000000080BB000080BB0000000033
:10075000000000770100007701000000000000EEBB
:10076000020000EE02000000000000002DE9F0474A
:10077000814648880C46050AC6B240212D48FFF73D
:1007800071FE00212B480127DFF8AC80022D07D035
:10079000012D47D1002E45D16278012A44D126E0AF
:1007A000002E3FD16278012A02D0022A3CD111E00A
:1007B0002178090601D532211CE0E2881D4948460E
:1007C00001F0BFF988F80170E188C8F80C1088F8CA
:1007D000025023E02278120626D5077041708170FE
:1007E000C1706422027141718771C17103E0227886
:1007F000120607D50170E2884846BDE8F0470D496A
:1008000001F0C0B9E2880B49484601F09AF988F82E
:100810000170E188C8F80C1088F80270A188090AF4
:1008200088F80310BDE8F08721464846BDE8F04748
:1008300001F079B9AC480020DC0000202DE9FC4132
:100840000121072000F03EFF01268DF804600025FD
:100850008DF8065002241720204F8DF80540009097
:100860008DF807506946384600F05AFD4FF4407045
:10087000009069461A4800F053FD4FF44060009024
:100880006946184800F04CFD8DF804408DF806507C
:10089000E0018DF8054000908DF807506946384614
:1008A00000F03EFD1048114A01684FF4C00091422B
:1008B00001D1010104E00E4A914204D14FF0806160
:1008C00000F080FF02E00BA0FFF7F4FC1148056088
:1008D0001148C0F8A062BDE8FC81000000000240A1
:1008E0000004024000080240C800002000D8B805FB
:1008F000006CDC02636C6F636B206D757374203465
:10090000386D2F39366D20666F722048532E0D0AD0
:1009100000000000A802414200804042FEE710B5FE
:100920000B460C0601F07F0202EB820100EBC101D5
:1009300002D501F58E7101E001F55D710A70DA09E9
:100940004A7002F066F9002010BD0A4610B509068B
:1009500002F07F0306D503EB830100EBC10101F533
:100960008E7105E002EB820100EBC10101F55D71C2
:1009700000248C700B70D2094A7002F031F900200B
:1009800010BD10B50A0604D501F07F0102F064FA2B
:1009900001E002F043FA002010BD70B50D460E06CE
:1009A00001F07F0404EB840100EBC10102D501F5E5
:1009B0008E7101E001F55D71ED090C704D708A607A
:1009C000CB7000D0CC80022B01D100220A7102F042
:1009D000D3F8002070BD10B501F07F0404EB840152
:1009E00000EBC10101F55D714B61CA6000238B61B1
:1009F0004B700C70C378012B00D10A6114F0FF0F0B
:100A000003D002F045F9002010BD02F04AF8FAE7E1
:100A10000069002261F30A12016811430160704706
:100A20000A4610B5090602F07F0306D503EB8301E1
:100A300000EBC10101F58E7105E002EB820100EBD4
:100A4000C10101F55D7101248C700B70D2094A70EF
:100A500002F006F9002010BD70B511F07F0404EB20
:100A6000840100EBC10101F58E714FF001054D705D
:100A70000C70CA600A614FF00002C1E9053203D070
:100A800002F006F9002070BD02F00BF8FAE7000052
:100A90007FB5064601F0EAFF684600F043FEF068C5
:100AA000019DC16821F47054C460304602F0F6F92B
:100AB000002103280DD00120B0704020B0803548BF
:100AC00035492844884209D224F4705101F5605117
:100AD00056E0B1704FF40070B0802CE02F483049E0
:100AE0002844884204D224F4705101F5505147E063
:100AF0002C482D492844884204D224F4705101F531
:100B000040513DE029482A492844884204D224F42F
:100B1000705101F5305133E0264827492844884276
:100B200004D224F4705101F5205129E023482449CE
:100B30002844884204D224F4705101F510511FE07A
:100B4000204821492844884204D224F4705101F5F8
:100B5000005115E01D481E492844884204D224F45F
:100B6000705101F5E0510BE01A481B4928448842B6
:100B700024F4705102D201F5C05101E001F5A051F9
:100B8000F068C160F1684FF40050486104B0012082
:100B900070BD0000401E1BFF40420F0000DC0BFF39
:100BA000E0C810002013FBFE20D61300003DE7FE36
:100BB000006A180000D3CEFE40771B00C05BB3FE76
:100BC000C091210000CA91FE40AC2700C01D6AFE02
:100BD00040E13300803C36FEE09C41002DE9F041CD
:100BE0000646002402F07DF9074650E0F8074CD095
:100BF0003069E1B20369426BCA4006EB810102F041
:100C00000102896943EAC2128D681540E9071AD0CA
:100C10000125426B05FA04F18A43426306EB840026
:100C2000806985601C48E1B20068426830469047A0
:100C3000F078012807D134B996F81101042802D1BF
:100C4000304601F087FF280704D506EB840008250D
:100C500080698560E80604D506EB8400102580696C
:100C60008560680604D506EB8400402580698560B0
:100C7000A80704D506EB8400022580698560280654
:100C800003D52146304600F060F9641C7F08002F30
:100C9000ACD10120BDE8F0813C0000202DE9F041FD
:100CA0000546002402F023F90746DFF8988043E068
:100CB000F8073FD0E1B2284602F01FF90646C00708
:100CC00025D005EB84000126416D8E60E97801296D
:100CD0000CD1406D016904EB840005EBC000C1F349
:100CE0001201D0F87C23511AC0F88C13D8F80000F8
:100CF000E1B2026828469047E878012807D134B964
:100D000095F81101052802D1284601F023FFB0070C
:100D100004D505EB84000226406D8660300709D5B6
:100D2000D8F8000081682846884705EB8401082030
:100D3000496D8860641C7F08002FB9D10120BDE88F
:100D4000F08100003C00002070B50546C068816954
:100D500021F010018161E868066A06F00F0000EBDF
:100D6000800005EBC004C6F3434004F55D7407281A
:100D700021D2DFE800F0202004202020150047F6D3
:100D8000F070064217D0C6F30A1632462846E168CC
:100D900002F0BBF8E0683044E060A069304409E04C
:100DA000082205F2CC51284602F0AFF8A069C6F33C
:100DB0000A110844A061E868816941F0100181616D
:100DC000012070BD38B5044600208DF8000094F86D
:100DD00012018DF8000015480068416920468847D7
:100DE00020698068E2684FF400615161A17AD1B155
:100DF000C00718D094F81501012814D19DF80000FF
:100E0000032810D1D4F80C01016841F00101016000
:100E1000D4F80C01016841F0030101600448016845
:100E200041F006010160012038BD00003C000020B7
:100E300010ED00E070B50446006900250126416808
:100E400021F0010141602946204602F005F800200A
:100E5000FF2206E004EB80018B699A60496D8A608D
:100E6000401C61788142F5D821694FF0FF308861DC
:100E70002846216966F30F0066F31F40C8612169A7
:100E800045F00B0048612169C1F88400216945F0F3
:100E90000B000861216948642069016821F4FE6142
:100EA0000160204601F056FEE1684FF48050486131
:100EB00003480068016920468847012070BD000092
:100EC0003C00002070B5044602F030F801200023F9
:100ED00084F8120184F814311A4640250DE002EB23
:100EE000820104EBC10101F58E7148700A70CA805D
:100EF000CB70C1E90253521C4B6161789142EED82C
:100F000000200DE000EB800104EBC10101F55D71F3
:100F10004B700870C880CB70C1E90253401C4B6114
:100F200061788142EED8204601F098FD204601F01C
:100F30007FFC0021204602F05BF8204601F0B8FC5F
:100F40002046BDE8704001F061BF2DE9F0470E4634
:100F500001EB860100EBC10404F58E748046D4E9F0
:100F60000501401AA168814200D20846C01C08EB66
:100F700086098708D9F81800816920E0451AA06819
:100F8000A84200D20546E81C8708ABB2F2B2404640
:100F9000E16802F042F8E0682844E060A069284473
:100FA000A061D9F8181089696269824207D1207856
:100FB00001228240D8F81000436B9343436388B208
:100FC000B84205D9D4E90501814201D20028D5D122
:100FD0000120BDE8F087000070B5084C084D21469F
:100FE000284600F0C9F8012807D12146284600F01C
:100FF00009F8BDE8704002F027B870BD00800028F5
:10100000B8600240074A904201D2074801E0054813
:101010001038064A8B0001EA020101D5C160704711
:101020008160704710640240006002407D0F7D0FB8
:101030000029016802D041F0010101E021F0010125
:10104000016070472DE9F043016821F00101016062
:101050000021016041608160C16001612121416125
:101060003C493C4A3D251039904202D18D60BDE893
:10107000F083384A4FF474661832904201D18E6082
:10108000F5E7344A4FF474173032904201D18F6043
:10109000EDE7304A4FF0746C4832904202D1C1F80B
:1010A00008C0E4E72B4B2C4A6033984201D1CA6058
:1010B000DDE7284C294B7834A04201D1CB60D6E73C
:1010C000DFF89080264C08F19008404501D1CC60B3
:1010D000CDE7DFF880804FF03D5908F1A808404582
:1010E00002D1C1F80C90C2E71E49DFF878800839B8
:1010F000404501D10D60BAE71A4D1835A84201D11B
:101100000E60B4E7174D3035A84201D10F60AEE74D
:10111000144D4835A84202D1C1F800C0A7E7114DCF
:1011200010496035091FA84201D10A609FE70D4AA6
:101130007832904201D10B6099E70A4A903290428E
:1011400001D10C6093E7074AA83290428FD1C1F8D1
:1011500000908CE7106002403D000020400F00200E
:1011600000003D2010640240014600200968C907C4
:1011700000D001207047000030B5104A0024904292
:1011800001D20F4A01E00D4A103A0E4B194205D028
:101190001E2303EAD12503682B4002E0406900F0DA
:1011A0008003880001D5506800E01068064A1040AE
:1011B000084201D003B10124204630BD1064024032
:1011C000006002403C0F3C0F7D0F7D0F0B0607D5E2
:1011D000436912B143F0800301E023F080034361CF
:1011E000802908D0002A026801F01E0101D00A43BC
:1011F00000E08A430260704730B50368124ACC6849
:1012000013400A682243D1E905452C432243CC69A7
:1012100022430C6A22434C6A22438C6A22434C6B61
:1012200022438C6B22431A430260426922F0070377
:10123000D1E90B2422431A4342610A6942604A6899
:1012400082608968C16030BD3F801CF00AB10161D5
:101250007047C160704741607047704710B500F03B
:1012600007F900F0F5F800F02FF8002010BD00009D
:1012700070B500F0A3F8104C0E4861880F4D00EBDC
:10128000810100222846FFF7E1FF04212846FFF7ED
:10129000E2FF01212846FFF7CBFEA06800F08EF99F
:1012A000074901200860074900220A604860207051
:1012B00070BD000068030020B8000020B860024044
:1012C000A80241428002404210B500214FF4004084
:1012D00000F004FA00214FF4001000F0F3F908497F
:1012E0000020086007490860486007490870074AFD
:1012F0001278002A02D1064A1060C86010BD0000B2
:10130000A802414280024042B8000020DC000020D8
:10131000E00000200149086070470000143C0140D3
:10132000F0B5002201274FF0030C0B6807FA02F515
:101330002B40AB422CD1066853000CFA03F4A643B1
:1013400006600E79D0F800E09E4046EA0E06066080
:101350000E79012E01D0022E12D18668A643866036
:101360004E79D0F808E09E4046EA0E068660466850
:10137000AE43466045688E799640B6B235434560C7
:10138000C568A543C560CC799C40C3681C43C46054
:10139000521C102AC9D3F0BD4B07DB0E9A40C90876
:1013A00010B500EB8100016A0F249C40A14301624B
:1013B000016A1143016210BDFEE7000010B5012172
:1013C00090B0480500F07EF9184C2046FFF73AFE31
:1013D0002046FFF7C9FE0028FAD11549164ACDE983
:1013E00000011449528801EB8201029140210391CE
:1013F0000221CDE904104902069149000791C90074
:10140000CDE90810C9000A9104210B910121CDE911
:101410000C100E9069462046FFF7EEFE01221021C7
:101420002046FFF7D3FE10B010BD0000B8600240A8
:101430000C3C004068030020B80000200029818B8C
:1014400002D041F4806101E021F480618183704722
:1014500008B52F208DF8000000208DF801008DF8D0
:10146000020001208DF80300684600F0D7F808BD9F
:101470007CB5012000F0A0F90121072000F022F93D
:1014800002208DF804008DF8050000208DF806007C
:101490000120194E8DF8070006220F213046FFF774
:1014A0007BFF164D062203212846FFF775FF072212
:1014B00004212846FFF770FF114C05220921204620
:1014C000FFF76AFF06220C212046FFF765FF4FF465
:1014D0000041009169463046FFF722FF1821009134
:1014E00069462846FFF71CFF4FF49051009169466A
:1014F0002046FFF715FF7CBD0000024000040240BB
:101500000008024070B58A684AF64444B2FBF4F51C
:1015100004FB15250123264A00241E46F5B3C2F814
:10152000A042C2F8A462234A848B4FF240052C40AB
:10153000848302240484858B8C8804B10223CC88A4
:10154000B4F5007F31D05B01B2FBF3F202EB820213
:101550008B685200B2FBF3F2521D92B20A23B2FB27
:10156000F3F202F00103D21A4FF6FF76C2F34F02F4
:1015700006EA0323961EFE2E01D3022200231A43FD
:10158000144304840A884B881A438B8889890B4347
:101590001A432A4342F40061818370BDFFE7C2F819
:1015A000A442C2F8A062044ABEE7120ACEE70000D5
:1015B000008040420000EE020010B1027FB5012120
:1015C0000446CD03284600F089F80121284600F0A2
:1015D00091F80021284600F08DF8A811ADF8000020
:1015E00000210520ADF8040002940A4CADF8021069
:1015F000ADF80610ADF80C1069462046FFF782FFE3
:1016000001220221204600F0E7F801212046FFF7E1
:1016100015FF7FBD003C0040FEE7704770B50F230B
:10162000C278017801254FF0E026E2B1124A126833
:1016300002F4E062C2F5E062C2F30722C2F10404E0
:10164000D3404278A24084781C400C4B14432201C2
:10165000CA54007800F01F018D40400906EB80005D
:10166000C0F8005170BD01F01F008540480906EB2D
:101670008000C0F8805170BD0CED00E000E400E097
:101680000249084302490860704700000000FA055B
:101690000CED00E0014800F00FBC0000F04100201C
:1016A000014800F043BC0000F0410020014800F078
:1016B00065BC0000F04100204FF48010FFF72ABE07
:1016C00070470000044A0029116801D0014300E07E
:1016D000814311607047000030380240044A0029FD
:1016E000116801D0014300E08143116070470000A0
:1016F00040380240044A0029116801D0014300E04B
:10170000814311607047000020380240044A0029DC
:10171000116801D0014300E081431160704700006F
:101720004438024070B5204B1968204C11F00C0170
:1017300004D01F4E042903D0082903D004601BE005
:10174000066019E0184A121F1168C1F3805511682C
:1017500001F03F0115B1B6FBF1F101E0B4FBF1F18D
:1017600014681268C4F388146143C2F30142521C26
:101770005200B1FBF2F1016019680F2202EA111167
:101780000C4A545C0168E14041601C68072505EA89
:101790009424145D21FA04F484601B6805EA533331
:1017A000D25CD140C16070BD083802400024F40012
:1017B000001BB700000000200149086070470000CE
:1017C0005C014742034B1A68084322F0EC62104365
:1017D0001860704708380240002A828801D00A4306
:1017E00000E08A438280704770470000FCB5002209
:1017F000394900920192086840F4803008604FF443
:10180000A043086800F4003001900098401C00904C
:10181000019810B900989842F3D10868314D5FEAF9
:10182000803C2E4E2E4F304C40F2027305F10400E6
:1018300029D501220192326842F0805232603A6822
:1018400042F440423A600268026002680260026844
:1018500042F480520260254A2A600A6842F080728F
:101860000A600A689201FCD52360016821F0030137
:101870000160016841F0020101600168C1F381016A
:101880000229FAD1FCBD0192326842F080523260E6
:101890003A6842F440423A600268026002680260BC
:1018A000026842F480520260114A2A600A6842F0DB
:1018B00080720A600A689201FCD52360016821F0F9
:1018C00003010160016841F0020101600168C1F398
:1018D00081010229FAD1FCBD0038024040380240A3
:1018E0000070004004380240003C024006304108CD
:1018F00008300108704700000F4810B5016841F03A
:10190000010101600C4A00210832116002680B4B92
:101910001A400260031D0A4A1A60026822F48022FB
:10192000026005480C300160FFF760FF05494FF089
:101930000060086010BD000000380240FFFFF6FEA6
:101940001030002408ED00E070B5154C40F2255130
:10195000204600F038F800280ED0204600F0C6F8E7
:10196000104AC1B21088030406D444044FF00003A7
:1019700006D50A2901D0138070BD40F400400DE067
:101980000D2909D0C0F30D04074D401C80B2295524
:101990001080C728EFD870BD40F48040108070BD23
:1019A00000100140B0000020A0020020C9430180C7
:1019B00070470029818902D041F4005101E021F4EF
:1019C00000518181704770B501F01F050126002488
:1019D000C1F3421306FA05F2012B0FD0022B0FD0F0
:1019E000838A4FEA11210088134206FA01F600EAC1
:1019F000060001D000B10124204670BD8389F0E7C4
:101A0000038AEEE710B5C1F3421301F01F04012170
:101A1000A140012B07D0022B07D01430002A026806
:101A200005D00A4304E00C30F8E71030F6E78A43AB
:101A3000026010BD7FB50446008A0D46C98820F4B7
:101A4000405001432182A08941F20C618843A9885A
:101A50002A8911436A8902431143A181A08A20F493
:101A60004071A8890843A0826846FFF75BFE1D48C5
:101A7000844202D01C48844201D1039800E00298BD
:101A8000A1890904002900EBC00101EB00102968BD
:101A900002DA4FEA410101E04FEA8101B0FBF1F0C7
:101AA0006422B0FBF2F14FEA01114FEA11136FF01B
:101AB00018056B4300EB8300A3891D044FF032032C
:101AC00006D503EBC000B0FBF2F000F0070005E024
:101AD00003EB0010B0FBF2F000F00F000843208190
:101AE0007FBD000000100140001401408088C0F359
:101AF0000800704710B5D0F8E425526890470020E0
:101B000010BD10B5134600240A462146FEF763FFB8
:101B1000204610BD10B5134600240A462146FEF7A4
:101B20009BFF204610BD10B504468021FEF778FFCC
:101B300000212046FEF774FF2046BDE8104001F06A
:101B400009B810B5C0F894230323C0F8902380F897
:101B50001131134600240A462146FEF73CFF204679
:101B600010BD70B505460024052085F811012346F7
:101B7000224621462846FEF72EFF284600F0EAFFBF
:101B8000204670BD10B5C0F83C210223C0F83821B2
:101B900080F81131134600240A462146FEF75CFF07
:101BA000204610BD70B505460024042085F81101BB
:101BB0002346224621462846FEF74EFF284600F0DF
:101BC000C9FF204670BD000070B5054641B1D5F88B
:101BD000E4054269BAB395F8120103284CD04DE0F0
:101BE00095F81101002605F58E74022839D1E169B6
:101BF000A06881420FD9081AE061E878012803D172
:101C0000D4E902100844E060A08BE16882B2284663
:101C1000FFF780FF10E0216AB1FBF0F200FB121227
:101C200092B9814210D3606A81420DD200221146DE
:101C30002846FFF76FFF666200231A4619462846BA
:101C4000FEF7C9FE0DE016E0D5F8E405C16829B13C
:101C500095F81201032801D1284688472846FFF746
:101C600080FF95F81601012808D105480068296908
:101C7000486085F8166101E028469047002070BD55
:101C80004000002070B5054641B1D5F8E4058269F1
:101C9000FAB195F8120103282AD02BE095F811012A
:101CA00005F55D74032825D1A168E069884211D942
:101CB000401AE061E878012802D1E0680844E06059
:101CC000E069884200D3084682B22846E168FFF7FF
:101CD00018FF0FE0D5F8E405016929B195F8120164
:101CE000032801D1284688472846FFF75BFF01E01B
:101CF00028469047002070BD38B50446C888ADF826
:101D0000000048880D46010A08295FD2DFE801F08B
:101D10005E0409215E5E4A5CD4F8EC15A0780A687E
:101D20003CE0D4F8E415A0788A6A694690470146F9
:101D3000A078012808D1227A012A05D1D4F8E41527
:101D4000CA6A69469047014602204870C4F8F015F7
:101D500049E0C0B2062839D2DFE800F003080D12CE
:101D6000171CD4F8EC15A0784A6817E0D4F8EC15E5
:101D7000A0788A6812E0D4F8EC15A078CA680DE063
:101D8000D4F8EC15A0780A6908E0D4F8EC15A0782E
:101D90004A6903E0D4F8EC15A0788A69694690474F
:101DA000014620E0A07888B9D4F8E4158A6A69462B
:101DB00090471649827B0A71C27B4A71007C887108
:101DC0000A20ADF8000012E0A07820B12946204694
:101DD000FFF7A9FE38BDD4F8E415CA6A69469047F2
:101DE000072201464270BDF800000028F2D0E888C2
:101DF0000028EFD0BDF80020904200D91046ADF881
:101E0000000082B22046FFF7BDFE38BDA6000020CC
:101E100001EB810100EBC100B0F88C0380B2704788
:101E200070B5002300281DD00446002502E06D1C7B
:101E3000EDB2641C2678002EF9D1022404EB45048F
:101E40001480CC545B1C0322CA545B1C002406E0A3
:101E5000CA545B1CDAB2401C8C54521CD3B20278B8
:101E6000002AF5D170BD2DE9F0411D461746884680
:101E70000446069E00F024FCC4F8E45504F5BD6554
:101E8000414685E8C0002046FFF71CF82868006836
:101E900080472046BDE8F04100F0DEBB10B5D0F829
:101EA000E415096A8847002010BD10B5D0F8E41584
:101EB000496A8847002010BD70B505460069416C2D
:101EC000426BC2F3400241EAC211EA6994680C40D5
:101ED000E1070CD0416B21F002014163E869012464
:101EE0008460114821460068426828469047A00750
:101EF00002D5E86902248460200702D5E869082435
:101F00008460E00602D5E86910248460600602D58A
:101F1000E86940248460200603D501212846FFF7A4
:101F200014F8012070BD00003C00002070B504468C
:101F3000806D85682169D1F884100D40E90713D0C0
:101F400001258560E078012808D1A06D0069D4F8EA
:101F5000B013C0F31200081AC4F8B40306480121F4
:101F60000068026820469047A80702D5A16D0220AC
:101F70008860012070BD00003C0000202DE9F04188
:101F80000646002400F09FFF00286AD0304600F08B
:101F9000A3FF050066D0280303D53046FEF77EFE7A
:101FA0000446680303D53046FEF718FE0443A8072D
:101FB00002D5F168022048612B4F002D16DAB07A65
:101FC00028B1D6F80C01016821F0030101603069E5
:101FD000416821F0010141603868816930468847D5
:101FE000F1684FF00040486144F00104280503D532
:101FF0003046FEF7E7FE0443280708D53868C16875
:1020000030468847F1680820486144F00104E8063A
:1020100003D53046FEF798FE0443E80403D5304666
:10202000FEF708FF0443A80403D53046FEF730FD51
:102030000443E80209D53868C16930468847F16829
:102040004FF48010486144F00104A80209D53868B3
:10205000016A30468847F1684FF40010486144F047
:1020600001042046BDE8F0813C00002090F8CC251A
:102070000A7090F8CD254A7090F8CE2590F8CF35AB
:1020800002EB03224A8090F8D02590F8D13502EB7C
:1020900003228A8090F8D22590F8D33502EB0322F0
:1020A00092B2CA800121C0F8402180F81111704716
:1020B00010B50023044640221946FEF76EFC0023AB
:1020C000402280212046FEF768FC012084F812019E
:1020D000D4F8E815A07849688847002010BD10B5ED
:1020E0000446D0F8E80500698047032084F812010F
:1020F000002010BD10B5D0F8E415C96901B18847BA
:10210000002010BD10B50446D0F8E4050268204652
:102110009047D4F8E80580688047002010BD000093
:1021200070B50A461A4D897804462970012905D8E8
:1021300094F81201022807D003280CD02046BDE8ED
:1021400070401146FFF7EFBCA1B184F810110320D5
:1021500084F812010BE091B194F81001884209D083
:1021600001462046FFF7C6FC297884F81011204666
:10217000FFF7C8FF2046BDE87040FFF713BD0220FF
:1021800084F8120184F810112046FFF7B3FCF1E740
:102190004400002010B504464888012201280FD0D1
:1021A000022831D1888810F0FF0F2DD121694968AC
:1021B000000A06281CD2DFE800F01B1B0B0F1317C8
:1021C000C4F81821D4F8E40582682046904716E048
:1021D00021F0700120310EE021F0700130310AE071
:1021E00021F07001403106E021F07001503102E031
:1021F00021F0700110310548016084F81621204655
:10220000BDE81040FFF7CEBC10BD0000400000202C
:102210001CB504466946FFF729FF9DF8002012F01F
:102220001F010AD001290DD0022910D002F080012F
:102230002046FEF7F5FB00201CBD6946204600F055
:102240000BF8F8E76946204600F0F6F8F3E7694630
:10225000204600F079F8EEE72DE9F0414A780026B3
:1022600001250A2A42D2DFE802F03B5541524108DB
:1022700005412A27FFF740FD61E004468888C8B978
:10228000C888B8B9887800F07F0794F8120103284D
:1022900010D084F8147139462046FEF7B9FB204669
:1022A000FFF780FC1FB1022084F8120147E084F898
:1022B000125144E0204619E0FFF732FF3FE0CA88A0
:1022C000012A13D190F81221022A02D0032A0DD13B
:1022D00002E001221B4917E0012200F5887113E09A
:1022E00090F81221022A04D0032A02D0FFF71BFC27
:1022F00025E014490839CD60D0F818210AB103222D
:10230000CA6010490222091DFFF73CFC17E0FFF7E5
:1023100041FF14E0044690F81201022801D003287E
:10232000C8D1488801280AD10020C4F81801D4F87F
:10233000E4058268204690472046FFF733FC30468C
:10234000BDE8F0814C00002070B50D4604462878A9
:1023500000260979C0F34110012806D0687878B3C7
:1023600001281ED003283AD106E0D4F8E405294616
:1023700082682046904732E094F81201022830D05B
:10238000032828D1688828B921B1802902D02046A5
:10239000FEF746FBD4F8E4052946826820469047BC
:1023A0000FE094F8120102281BD0032813D168888B
:1023B000A8B931B1802904D02046FEF7C6FAE9E772
:1023C00003E02046FFF7EEFB09E094F81201022833
:1023D00007D003280DD029462046FFF7A4FB30463E
:1023E00070BD0029FBD08029F9D02046FEF718FBEC
:1023F000F5E7104A08064FF000034FF0010508D535
:1024000001F07F0000EB800004EBC00090F81E019B
:1024100005E001EB810004EBC00090F8760308B101
:10242000556000E0536003490222091D2046FFF772
:10243000A9FBD4E74400002070B5054690F81201CE
:1024400000260C4603280DD1207901280AD8D5F89A
:10245000E405826828469047E08830B92846FFF7AF
:10246000A1FB02E02846FFF75EFB304670BD10B5C9
:1024700000F589700178417004210170D0F8D6040C
:10248000C0688047002010BD10B50A46024903A06D
:10249000FFF7C6FC004810BDD80100204155444953
:1024A0004F20436F6E6669670000000002490120FB
:1024B000087002A0FDF7FEBE540000204465766956
:1024C0006365436F6E666967757265642E0D0A00F9
:1024D00001A0FDF7EFBE0000446576696365436FB8
:1024E0006E6E65637465642E0D0A0000122008800C
:1024F000004870479400002001A0FDF7DBBE0000FB
:10250000446576696365446973636F6E6E65637471
:1025100065642E0D0A00000018B1012803D003A045
:1025200002E007A000E00BA0FDF7C4BE4465766999
:1025300063655265736574205B3F3F5D0D0A000063
:102540004465766963655265736574205B48535DC5
:102550000D0A0000446576696365526573657420F1
:102560005B46535D0D0A000002490120087002A07D
:10257000FDF7A0BE540000204465766963652052D3
:102580006573756D65640D0A000000000249002046
:10259000087002A0FDF78EBE5400002044657669E5
:1025A00063652073757370656E640D0A000000002A
:1025B0007047000010B50A46024903A0FFF730FC3F
:1025C000004810BDD8010020415544494F20496EB4
:1025D0007465726661636500042008800048704776
:1025E0009000002010B50A46024903A0FFF718FC2E
:1025F000004810BDD801002052555348000000008B
:102600000A4610B5044920B104A0FFF709FC0248AE
:1026100010BD04A0F9E70000D80100204653205562
:1026200053420000485320555342000010B50A465B
:10263000024903A0FFF7F4FB004810BDD8010020B9
:102640004F637420203220323032330098200880CB
:10265000004870470401002038B54FF4C065284693
:10266000FFF70EF84D208DF8000001248DF8014091
:1026700003208DF802008DF803406846FEF7CEFF78
:102680002846FEF7FDFF4A208DF800008DF8014036
:1026900002208DF802008DF803406846FEF7BEFF69
:1026A0002846FEF7EDFF4B208DF800008DF8014025
:1026B0008DF802408DF803406846FEF7AFFF38BD45
:1026C0002DE9FC4701210720FEF7FCFFDFF82481FC
:1026D0000A2203214046FEF75FFE0A2205214046FA
:1026E000FEF75AFEDFF810910A2200214846FEF755
:1026F00053FE0A2201214846FEF74EFE0A2205211A
:102700004846FEF749FE0A2211464846FEF744FEB7
:102710000A220B214846FEF73FFE0A220C214846BA
:10272000FEF73AFE0A220D214846FEF735FEDFF895
:10273000CCA00A2203215046FEF72EFE0A220221D7
:102740005046FEF729FE0A2200215046FEF724FEDD
:102750002020032400908DF8054002258DF80450B8
:1027600069464046FEF7DCFD8DF805408DF80450C3
:10277000002608278DF8066000978DF807606946E7
:102780004046FEF7CDFD8DF8054043F623408DF819
:10279000045000908DF806608DF807606946484641
:1027A000FEF7BEFD012000908DF805408DF8045025
:1027B00069465046FEF7B4FD8DF8054000978DF848
:1027C000045069465046FEF7ABFD042000908DF89A
:1027D00005408DF8045069465046FEF7A1FD0121E1
:1027E0006007FEF76FFF01210807FEF783FFBDE8D2
:1027F000FC87000000000240000402400008024084
:102800004FF47A71484300F001B80000064A074BC4
:1028100000211268B2FBF3F242430720B2FBF0F052
:10282000491C8142FCD97047C800002040420F007B
:1028300070B50446017A0025C068012915D0C16829
:1028400041F04001C160204600F0DCF8617A4FF4AD
:10285000341009B14FF47410E16888631420FFF755
:10286000CFFFE078012819D020E0816B627A21F453
:1028700080310AB141F480118163E068C16821F0C0
:10288000401121F42021C160204600F0BBF8E0781F
:1028900001280BD1E1682A208860E2E7E0688168BE
:1028A00021F01E010A3141F020018160284670BDEF
:1028B0002DE9F04104460027D0F80C013D462B4697
:1028C00007602069016821F4C0510160E07A402668
:1028D000C8BB207A01284CD00121204600F0EDFA37
:1028E000E1684FF400704862802161F31F4360F398
:1028F0000F03E068836203EB1341284661F30F0086
:10290000E16866F31F40C1F8040100EB104161F378
:102910000F00E16865F31F40C1F8080100EB1041AA
:1029200061F30F00E168C1F80C0100EB104161F3A5
:102930000F00E168C1F8100100EB104161F30F00D6
:10294000E168C1F814011021204600F085FA204604
:1029500000F064FA206905612069456121694FF042
:10296000FF3088612069C56100204FF09042FF234D
:1029700015E00021B1E704EB800CDCF818E0DEF88C
:102980000010002901DA114600E02946CEF80010B7
:10299000DCF818100D61DCF818108B60401C6178B1
:1029A0008142E8D8002013E004EB800CDCF854E00E
:1029B000DEF80010002901DA114600E02946CEF8C1
:1029C0000010DCF854100D61DCF854108B60401CD2
:1029D00061788142E8D82069016941F48071016120
:1029E000E078012808D1032066F38A00216940F4C9
:1029F000803066F359400863204600F0E3F938461A
:102A0000BDE8F081F8B50026044637460096124D21
:102A10000320FFF7FBFEE068006900907F1CAF42D7
:102A200001D90020F8BD00980028F1DA00980021B3
:102A300040F0010000900098E2681061E0680269CF
:102A40000092491CA94202D8009AD207F7D103206C
:102A5000FFF7DCFE3046F8BD400D0300C0680022E1
:102A6000816821F0010181601046704710B501694D
:102A70000024896883691A68C1F3410119B10129E9
:102A800001D0022902D0D10AC90202E0D10AC9024A
:102A9000C91C19600069416841F480714160204699
:102AA00010BDF0B54B7800264A69012B12D00B7887
:102AB00000EB8304636D1D681B69C2B38A684A61B9
:102AC00062F3060343F40022636D1A61C278012A9F
:102AD00030D035E083691F681C6932B18D68AA4225
:102AE00008D965F306044D6106E024F07F0242F444
:102AF000002203E062F3060444F400221A61C27863
:102B0000012A05D10C780A6900EB8404A46962618A
:102B100047F004421A60C278CAB94A69BAB10A7861
:102B2000006901219140426B0A4342630FE0FFE7D5
:102B30000A7AC5E70B780A6900EB83035B6D5A617B
:102B4000097845F0044200EB8100406D0260304698
:102B5000F0BD0000426D07491161C178012908D11B
:102B6000426D00F2CC515161406D01684FF08021FF
:102B70000160704718000860F0B50D7800264F78A6
:102B80000124AC40324600EB8503012F17D05B6D6A
:102B900064F31F421C6825040DD40D8965F30A04F3
:102BA000CD7865F393448D7965F3995444F080545E
:102BB00044F400441C600978012904D005E09B69B5
:102BC00064F30F02E6E7C17A29B10069C1691143D4
:102BD000C1613046F0BD0069C16B1143C163F8E7C4
:102BE00010B503464C780A78002003EB8202012CD2
:102BF00009D0526D1368C97823F40013032904D057
:102C0000022902D003E09269F4E743F08053136095
:102C100010BDF0B50D78002691F801C001233746AC
:102C2000AB403A4600EB8504BCF1010F07D0646D60
:102C300063F31F4227600978012904D005E0A469E5
:102C400063F30F02F6E7C17A29B10069C1699143C4
:102C5000C1613046F0BD0069C16B9143C163F8E7C3
:102C600002464B780978002002EB8101012B05D048
:102C7000496D0A6842F400120A6070478A69116857
:102C8000002901DA41F0804141F4001111607047E0
:102C9000F0B54A780B7800240125D1F814C000EB78
:102CA0008303012A1BD05E6D32683669BCF1000FC8
:102CB00069D08D680CEB05077F1EB7FBF5F767F34E
:102CC000DC46C6F3C9476F4367F31206C6F3120525
:102CD0004D615B6D1E61C378012B5AD05FE09F6927
:102CE0003A683E69BCF1000F0DD08B686CF3120698
:102CF0009C44ACF1010CBCFBF3F363F3DC46CB78F2
:102D0000012B05D008E06FF3120665F3DC4603E003
:102D100026F0C04606F100563E61C378012B0ED066
:102D2000CB78012B12D04B69C3B10B789D4003695E
:102D30005E6B2E435E63CB78012B07D00EE00D78DF
:102D40000B6900EB8505AD696B61F4E703699B686E
:102D5000C3F30D23DB070CD042F080520B7842F016
:102D6000044200EB83039B691A60CA78012A03D0EE
:102D700026E042F00052F1E78A8A93B20A78C968E5
:102D800000F04BF91CE08F6867F3120665F3DC4630
:102D90009FE70D780B6900EB85056D6D6B61CB7856
:102DA000012B06D14B7913B142F0005201E042F001
:102DB0008052097842F0044200EB8100406D0260CD
:102DC0002046F0BD30B5C368002211469A61C46840
:102DD0006FF080436361C568541E6C60C4686361B2
:102DE000C468094BA361C37803B91021C06841F4DA
:102DF000872141F00811836941F440118B430B4353
:102E00008361104630BD000000080080C0680022C9
:102E1000816841F0010181601046704738B5002497
:102E2000024621460094009840F01000009000985F
:102E3000D36818610748D26813690093491C81421E
:102E400002D8009BDB06F7D40320FFF7DFFC204607
:102E500038BD0000400D030038B50024034622466B
:102E60000094009840F020000090009861F38A10D0
:102E700000900098D96808610748D9680B690093E9
:102E8000521C824202D8009B9B06F7D40320FFF716
:102E9000BDFC204638BD0000400D0300006980687D
:102EA000C0F3410028B1012801D0022803D002203C
:102EB000704703207047012070470069026861F382
:102EC000010202607047C068406910F0010F01D034
:102ED0000020704701207047C06841698069084040
:102EE000704700698169C069084080B27047006915
:102EF0008169C0690840000C704700EB8101496D91
:102F00008968006940690840704710B5044600238D
:102F1000D21C9008D4F8D02003E0146841F8044B88
:102F20005B1C8342F9D3084610BD000070B5002237
:102F30000123C270402683701546144686800129FD
:102F400001D061B115E0C3720821017004214FF076
:102F5000A04241709115C1800221017209E0C47242
:102F60000C210170062141704FF4A0611F4AC180FD
:102F7000037202F50061C0E9032100210AE002EBBF
:102F8000411303F5106600EB810403F53063A6617D
:102F9000491C636543788B42F1D802F58061416139
:102FA0004031C0F8CC10002108E002EB411300EBE7
:102FB000810403F5A063491CC4F8903003788B4268
:102FC000F3D8002108E002EB013300EB810403F5A4
:102FD0008053491CC4F8D03003788B42F3D802F5F3
:102FE0006062C0F80C21284670BD0000000004405B
:102FF00010B5C3680024D868012920F0C04201D070
:1030000019B104E042F0005201E042F08042DA607F
:103010003220FFF7F5FB204610BD30B505460020F5
:10302000EC78002C0CD105EB8202DB1C9B08D2F85B
:10303000D02003E051F8045B1560641C9C42F9D376
:1030400030BDFEE77047000070B5154D00212846E1
:10305000FDF7EEFF134C6088B0F57A6F03D26088FD
:10306000801C81B200E00021A088814205D1FEF7DA
:103070002BF9E068401CE06070BD61800A486188FF
:10308000002200EB81012846FEF7E0F804212846E3
:10309000FEF7E1F82846BDE870400121FDF7C8BF02
:1030A000B8600240B80000206803002003490A8885
:1030B0005206FCD5C2B28A80704700000010014061
:1030C00008B500244FF0FF0A25462746FDF7B6FB5A
:1030D000DFF858B1A0464646CBF8A082CBF8A482D0
:1030E0004FF4A060FEF7CCFA4FF4E13000F00EF997
:1030F0004F484FF00109C0F800908660CBF8A492C9
:103100004CA0FDF7D7F84DA0FDF7D4F8504800903B
:10311000504B514A00215148FEF7A5FEFEF79EF89C
:10312000DFF83CB14F4E50480278924510D08246AD
:103130000078012853D04DA0FDF7BCF8C6F888925E
:10314000C6F89082C6F88082C6F884829AF800A0F9
:103150004B480078002859D0641C4CF2503084420F
:103160002CD900241B2147A0FDF7A4F847A0FDF7A8
:10317000A1F84848016848A0FDF79CF84948016853
:1031800049A0FDF797F84BA0DBF80010FDF792F887
:103190004A4801684AA0FDF78DF84B4801684BA0EA
:1031A000FDF788F84B4801684BA0FDF783F86D1CCC
:1031B000B5F57A7F02D9DBF8007000253548006844
:1031C000642802D20027CBF800803F4841490068BC
:1031D000096808430BD0C6F8809240460EE040A034
:1031E000FDF768F8C6F88882C6F89092AEE7DBF87B
:1031F0000000B84205D94846C6F88092C6F8840255
:1032000001E0C6F88082C6F884928CE7C6F8808216
:10321000C6F884822C490024C1F800802D49C1F8E9
:1032200000801C49C1F800807DE70000008040421A
:10323000880240421B5B324A000000005553422086
:1032400077616974696E672E2E2E200D0A000000CA
:1032500058000020A801002074000020F041002048
:10326000A401002000004042540000205553422099
:10327000446973436F6E6E65637465642E0D0A0056
:10328000DC00002025635B324B0000001B5B3F32FB
:10329000356C00009C0100200D66624F6B3A25647E
:1032A00000000000A00100202C66624E473A256411
:1032B000000000002C4C4F533A2564000001002010
:1032C0002C6275663A256400E00000202C6F763A87
:1032D00025640000C40000202C55443A25640000F9
:1032E00055534220436F6E6E65637465642E0D0AFC
:1032F00000000000425C08444178807841EA0020E8
:1033000040EA026020F47F0070470000F0B50646F6
:10331000012187B00846FEF7D5F901211020FEF7FC
:10332000F5F9254D072209212846FEF735F8072231
:103330000A212846FEF730F802218DF814108DF886
:1033400015104FF4C060002404908DF8164001273A
:103350008DF8177004A92846FDF7E2FFADF8044088
:10336000ADF80640ADF80840ADF80C400C20134C09
:10337000ADF80A00009669462046FEF75BFB012186
:103380002046FEF716FB40212046FEF70FFB0122E8
:1033900040F225512046FEF735FB25208DF8180018
:1033A00003208DF819008DF81A008DF81B7006A8FF
:1033B000FEF734F907B0F0BD0000024000100140F4
:1033C000002070472DE9F34F81B00298012874D195
:1033D00001210198FEF71CFD454D06210023A8613F
:1033E000B0FBF1F09B464FF0030A424CDFF8089126
:1033F000DFF80881286229E02188D8F8000081429E
:1034000003D22088801C009002E05846CDF800B01E
:103410000146B9F80000814225D0218003EB430624
:103420004FF6FF7000EA46013548FFF763FF354F5E
:10343000218847F821000AEB460081B23048FFF7A7
:1034400059FF21885B1C07EB81014860286A834291
:10345000D2D32188B9F800204846914207D9218863
:103460000088081A09E06868401C6860F1E7008875
:10347000D8F80010081A21880844686222480078A9
:1034800038B9696AD8F80000B1EB500F01D9FDF7DF
:10349000EFFED8F80020B2FBFAF16A6AB2EB410FF6
:1034A00002D94FF0FF300AE0696AD8F80000B1EBAA
:1034B000500F03D9C5F808B002E013E00120A8605E
:1034C000029800EB8001019800EBC10090F879139D
:1034D00059B1002180F87913C823094A01210198C4
:1034E000FDF779FA0020BDE8FE8F0121F2E7000028
:1034F000DC000020BC000020BA000020603600087C
:10350000E447002068030020B800002010B5012126
:10351000FDF705FA002010BD05484178012905D1C5
:10352000C178022902D100214170C160002070479A
:10353000DC00002070B5094C05460123A08A19461D
:1035400082B22846FDF729FAA08A054A83B20121F2
:103550002846FDF740FA002070BD0000DC00002086
:10356000E447002000207047054910B5097829B1CB
:10357000034A04231C328121FDF76EFA002010BD9E
:10358000DC00002070B5044608780922324D10F0A6
:10359000600314D0202B5CD100F00F00012858D11B
:1035A0008888000A022802D0042852D103E020466D
:1035B000FDF7DCF84DE02046FDF750F849E048788B
:1035C000062804D00A2810D00B2842D111E04888E0
:1035D0002123B3EB102F03D1CA88092A00D909226D
:1035E00029462046FEF7CEFA33E01B4901222A394C
:1035F000F7E78878022829D217493A39086108691B
:1036000001280AD00020087001212046FDF787F923
:1036100081212046FDF783F91BE00869087001232A
:10362000C82219462046FDF7B8F90123042281215A
:103630002046FDF7B2F981212046FDF7A2F9C82303
:10364000064A01212046FDF7C6F902E02046FEF7B2
:103650006AFA002070BD000016010020E447002037
:10366000A00F00008436000800000020D8010000F0
:10367000C40100089C370008D8010020784B0000E6
:1036800020020008412D010203040417060708095F
:10369000851C1408C91B140811221408F5201B08E6
:1036A000B104136F241B08DF08139D1E1B08AB0415
:1036B00081221002182013B1251B0819041AAD3CF1
:1036C0001A8D081A69041AD10C1AF9041AED041A91
:1036D000D9101AE5041301261B082D041A89141A9F
:1036E000B51017040309041201200902EF0201407A
:1036F000B120021A029A14010A06190B1103114093
:10370000017344AC84D8B80569CC01140213901C31
:1037100009029867112DC032080B0812202B0904EA
:10372000461A01091A248B2304402708240A04039B
:10373000071711240201010174040203C7122406B1
:1037400002010F1D0C2403031F2A02441B0904B2AB
:103750002B0102521B0101CA12201B10243F190326
:1037600019D939431A06511008031807050109C869
:103770004C010825E13E0705811104F2911335350E
:103780001B080D041A8504411A190813C1331B08BC
:0C379000C5045A69141A65084B4D260444
:040000050800018965
:00000001FF
